{
  "contractName": "Market",
  "abi": [
    {
      "inputs": [],
      "payable": false,
      "stateMutability": "nonpayable",
      "type": "constructor",
      "signature": "constructor"
    },
    {
      "anonymous": false,
      "inputs": [
        {
          "indexed": false,
          "name": "newUser",
          "type": "address"
        }
      ],
      "name": "UserRegistered",
      "type": "event",
      "signature": "0x54db7a5cb4735e1aac1f53db512d3390390bb6637bd30ad4bf9fc98667d9b9b9"
    },
    {
      "anonymous": false,
      "inputs": [
        {
          "indexed": false,
          "name": "newUser",
          "type": "address"
        },
        {
          "indexed": false,
          "name": "amount",
          "type": "uint256"
        }
      ],
      "name": "DepositSuccess",
      "type": "event",
      "signature": "0x60bbf3f279de4eb569cec9565dbd645a7d269bef7d4b20083d8da32ddd6e9460"
    },
    {
      "anonymous": false,
      "inputs": [
        {
          "indexed": false,
          "name": "userAddress",
          "type": "address"
        }
      ],
      "name": "UserUnregistered",
      "type": "event",
      "signature": "0x69c4cef1aa574ae7852ac8b784ab60926951c604b70049150e4091759ea98076"
    },
    {
      "anonymous": false,
      "inputs": [
        {
          "indexed": false,
          "name": "numTokens",
          "type": "uint256"
        }
      ],
      "name": "TokensAdded",
      "type": "event",
      "signature": "0x7abd2da41655cd6672547886624ebbe41968185456fb8b5b82cf3dd1d8ff8f31"
    },
    {
      "anonymous": false,
      "inputs": [
        {
          "indexed": false,
          "name": "from",
          "type": "address"
        },
        {
          "indexed": false,
          "name": "to",
          "type": "address"
        },
        {
          "indexed": false,
          "name": "priceInTokens",
          "type": "uint256"
        }
      ],
      "name": "TransferSuccess",
      "type": "event",
      "signature": "0xa170301a3eaa747fe3afbb4de1c3601cf3dee8ef5a572fcb6aaca116cf42c8ee"
    },
    {
      "anonymous": false,
      "inputs": [
        {
          "indexed": false,
          "name": "from",
          "type": "address"
        },
        {
          "indexed": false,
          "name": "to",
          "type": "address"
        },
        {
          "indexed": false,
          "name": "priceInTokens",
          "type": "uint256"
        }
      ],
      "name": "BuySuccess",
      "type": "event",
      "signature": "0x912e7d37b91af6b800f09f5597d19de624a4e0ba30abbec5ce505167ca7ff631"
    },
    {
      "constant": true,
      "inputs": [],
      "name": "totalSupply",
      "outputs": [
        {
          "name": "",
          "type": "uint256"
        }
      ],
      "payable": false,
      "stateMutability": "view",
      "type": "function",
      "signature": "0x18160ddd"
    },
    {
      "constant": true,
      "inputs": [
        {
          "name": "userAddress",
          "type": "address"
        }
      ],
      "name": "balanceOf",
      "outputs": [
        {
          "name": "",
          "type": "uint256"
        }
      ],
      "payable": false,
      "stateMutability": "view",
      "type": "function",
      "signature": "0x70a08231"
    },
    {
      "constant": false,
      "inputs": [
        {
          "name": "amount",
          "type": "uint256"
        }
      ],
      "name": "addTokens",
      "outputs": [],
      "payable": false,
      "stateMutability": "nonpayable",
      "type": "function",
      "signature": "0xc6ed8990"
    },
    {
      "constant": false,
      "inputs": [
        {
          "name": "newUser",
          "type": "address"
        },
        {
          "name": "userType",
          "type": "string"
        },
        {
          "name": "amount",
          "type": "uint256"
        }
      ],
      "name": "register",
      "outputs": [],
      "payable": false,
      "stateMutability": "nonpayable",
      "type": "function",
      "signature": "0xfc0d1b84"
    },
    {
      "constant": false,
      "inputs": [
        {
          "name": "userAddress",
          "type": "address"
        }
      ],
      "name": "unregister",
      "outputs": [],
      "payable": false,
      "stateMutability": "nonpayable",
      "type": "function",
      "signature": "0x2ec2c246"
    },
    {
      "constant": false,
      "inputs": [
        {
          "name": "productId",
          "type": "string"
        },
        {
          "name": "priceInTokens",
          "type": "uint256"
        },
        {
          "name": "seller",
          "type": "address"
        }
      ],
      "name": "buy",
      "outputs": [
        {
          "name": "",
          "type": "bytes32"
        }
      ],
      "payable": false,
      "stateMutability": "nonpayable",
      "type": "function",
      "signature": "0x365366fb"
    }
  ],
  "bytecode": "0x608060405260006003553480156200001657600080fd5b50336000806101000a81548173ffffffffffffffffffffffffffffffffffffffff021916908373ffffffffffffffffffffffffffffffffffffffff1602179055506040805190810160405280600b81526020017f6368616972706572736f6e000000000000000000000000000000000000000000815250600160008060009054906101000a900473ffffffffffffffffffffffffffffffffffffffff1673ffffffffffffffffffffffffffffffffffffffff1673ffffffffffffffffffffffffffffffffffffffff16815260200190815260200160002060010190805190602001906200010592919062000187565b5060018060008060009054906101000a900473ffffffffffffffffffffffffffffffffffffffff1673ffffffffffffffffffffffffffffffffffffffff1673ffffffffffffffffffffffffffffffffffffffff16815260200190815260200160002060000160006101000a81548160ff02191690831515021790555062000236565b828054600181600116156101000203166002900490600052602060002090601f016020900481019282601f10620001ca57805160ff1916838001178555620001fb565b82800160010185558215620001fb579182015b82811115620001fa578251825591602001919060010190620001dd565b5b5090506200020a91906200020e565b5090565b6200023391905b808211156200022f57600081600090555060010162000215565b5090565b90565b61144a80620002466000396000f3fe608060405260043610610078576000357c0100000000000000000000000000000000000000000000000000000000900463ffffffff16806318160ddd1461007d5780632ec2c246146100a8578063365366fb146100f957806370a08231146101ff578063c6ed899014610264578063fc0d1b841461029f575b600080fd5b34801561008957600080fd5b50610092610391565b6040518082815260200191505060405180910390f35b3480156100b457600080fd5b506100f7600480360360208110156100cb57600080fd5b81019080803573ffffffffffffffffffffffffffffffffffffffff16906020019092919050505061045f565b005b34801561010557600080fd5b506101e96004803603606081101561011c57600080fd5b810190808035906020019064010000000081111561013957600080fd5b82018360208201111561014b57600080fd5b8035906020019184600183028401116401000000008311171561016d57600080fd5b91908080601f016020809104026020016040519081016040528093929190818152602001838380828437600081840152601f19601f82011690508083019250505050505050919291929080359060200190929190803573ffffffffffffffffffffffffffffffffffffffff1690602001909291905050506106e8565b6040518082815260200191505060405180910390f35b34801561020b57600080fd5b5061024e6004803603602081101561022257600080fd5b81019080803573ffffffffffffffffffffffffffffffffffffffff169060200190929190505050610b40565b6040518082815260200191505060405180910390f35b34801561027057600080fd5b5061029d6004803603602081101561028757600080fd5b8101908080359060200190929190505050610cae565b005b3480156102ab57600080fd5b5061038f600480360360608110156102c257600080fd5b81019080803573ffffffffffffffffffffffffffffffffffffffff169060200190929190803590602001906401000000008111156102ff57600080fd5b82018360208201111561031157600080fd5b8035906020019184600183028401116401000000008311171561033357600080fd5b91908080601f016020809104026020016040519081016040528093929190818152602001838380828437600081840152601f19601f82011690508083019250505050505050919291929080359060200190929190505050610dbc565b005b60008060009054906101000a900473ffffffffffffffffffffffffffffffffffffffff1673ffffffffffffffffffffffffffffffffffffffff163373ffffffffffffffffffffffffffffffffffffffff16141515610457576040517f08c379a000000000000000000000000000000000000000000000000000000000815260040180806020018281038252601e8152602001807f4f6e6c79206368616972706572736f6e2063616e2063616c6c2074686973000081525060200191505060405180910390fd5b600254905090565b6000809054906101000a900473ffffffffffffffffffffffffffffffffffffffff1673ffffffffffffffffffffffffffffffffffffffff163373ffffffffffffffffffffffffffffffffffffffff16141515610523576040517f08c379a000000000000000000000000000000000000000000000000000000000815260040180806020018281038252601e8152602001807f4f6e6c79206368616972706572736f6e2063616e2063616c6c2074686973000081525060200191505060405180910390fd5b60011515600160008373ffffffffffffffffffffffffffffffffffffffff1673ffffffffffffffffffffffffffffffffffffffff16815260200190815260200160002060000160009054906101000a900460ff161515141515610614576040517f08c379a00000000000000000000000000000000000000000000000000000000081526004018080602001828103825260238152602001807f4572726f723a205573657220746f20756e7265676973746572206e6f7420666f81526020017f756e64000000000000000000000000000000000000000000000000000000000081525060400191505060405180910390fd5b600160008273ffffffffffffffffffffffffffffffffffffffff1673ffffffffffffffffffffffffffffffffffffffff168152602001908152602001600020600080820160006101000a81549060ff02191690556001820160006106789190611331565b600282016000905550507f69c4cef1aa574ae7852ac8b784ab60926951c604b70049150e4091759ea9807681604051808273ffffffffffffffffffffffffffffffffffffffff1673ffffffffffffffffffffffffffffffffffffffff16815260200191505060405180910390a150565b600060606040805190810160405280600581526020017f627579657200000000000000000000000000000000000000000000000000000081525090506060600160003373ffffffffffffffffffffffffffffffffffffffff1673ffffffffffffffffffffffffffffffffffffffff1681526020019081526020016000206001018054600181600116156101000203166002900480601f0160208091040260200160405190810160405280929190818152602001828054600181600116156101000203166002900480156107fc5780601f106107d1576101008083540402835291602001916107fc565b820191906000526020600020905b8154815290600101906020018083116107df57829003601f168201915b5050505050905081805190602001208180519060200120141515610888576040517f08c379a00000000000000000000000000000000000000000000000000000000081526004018080602001828103825260188152602001807f4f6e6c792062757965722063616e2063616c6c2074686973000000000000000081525060200191505060405180910390fd5b843373ffffffffffffffffffffffffffffffffffffffff16311015151561093d576040517f08c379a000000000000000000000000000000000000000000000000000000000815260040180806020018281038252602b8152602001807f5472616e73666572206661696c65642064756520746f20696e7375666669636981526020017f656e742062616c616e636500000000000000000000000000000000000000000081525060400191505060405180910390fd5b8373ffffffffffffffffffffffffffffffffffffffff163373ffffffffffffffffffffffffffffffffffffffff1614151515610a07576040517f08c379a00000000000000000000000000000000000000000000000000000000081526004018080602001828103825260318152602001807f496e76616c69643a2043616e2774207472616e7366657220746f6b656e20746f81526020017f207468652073616d65206163636f756e7400000000000000000000000000000081525060400191505060405180910390fd5b610a123385876110d9565b6060600354873387896040516020018086815260200185805190602001908083835b602083101515610a595780518252602082019150602081019050602083039250610a34565b6001836020036101000a0380198251168184511680821785525050505050509050018473ffffffffffffffffffffffffffffffffffffffff1673ffffffffffffffffffffffffffffffffffffffff166c010000000000000000000000000281526014018373ffffffffffffffffffffffffffffffffffffffff1673ffffffffffffffffffffffffffffffffffffffff166c010000000000000000000000000281526014018281526020019550505050505060405160208183030381529060405290506001600360008282540192505081905550808051906020012093505050509392505050565b6000816000809054906101000a900473ffffffffffffffffffffffffffffffffffffffff1673ffffffffffffffffffffffffffffffffffffffff163373ffffffffffffffffffffffffffffffffffffffff161480610bc957508073ffffffffffffffffffffffffffffffffffffffff163373ffffffffffffffffffffffffffffffffffffffff16145b1515610c63576040517f08c379a00000000000000000000000000000000000000000000000000000000081526004018080602001828103825260318152602001807f4f6e6c79206368616972706572736f6e206f722074686520746172676574207581526020017f7365722063616e2063616c6c207468697300000000000000000000000000000081525060400191505060405180910390fd5b600160008473ffffffffffffffffffffffffffffffffffffffff1673ffffffffffffffffffffffffffffffffffffffff16815260200190815260200160002060020154915050919050565b6000809054906101000a900473ffffffffffffffffffffffffffffffffffffffff1673ffffffffffffffffffffffffffffffffffffffff163373ffffffffffffffffffffffffffffffffffffffff16141515610d72576040517f08c379a000000000000000000000000000000000000000000000000000000000815260040180806020018281038252601e8152602001807f4f6e6c79206368616972706572736f6e2063616e2063616c6c2074686973000081525060200191505060405180910390fd5b806002600082825401925050819055507f7abd2da41655cd6672547886624ebbe41968185456fb8b5b82cf3dd1d8ff8f31816040518082815260200191505060405180910390a150565b6000809054906101000a900473ffffffffffffffffffffffffffffffffffffffff1673ffffffffffffffffffffffffffffffffffffffff163373ffffffffffffffffffffffffffffffffffffffff16141515610e80576040517f08c379a000000000000000000000000000000000000000000000000000000000815260040180806020018281038252601e8152602001807f4f6e6c79206368616972706572736f6e2063616e2063616c6c2074686973000081525060200191505060405180910390fd5b60001515600160008573ffffffffffffffffffffffffffffffffffffffff1673ffffffffffffffffffffffffffffffffffffffff16815260200190815260200160002060000160009054906101000a900460ff161515141515610f4b576040517f08c379a00000000000000000000000000000000000000000000000000000000081526004018080602001828103825260178152602001807f616c72656164792072656769737465726564207573657200000000000000000081525060200191505060405180910390fd5b81600160008573ffffffffffffffffffffffffffffffffffffffff1673ffffffffffffffffffffffffffffffffffffffff1681526020019081526020016000206001019080519060200190610fa1929190611379565b5060018060008573ffffffffffffffffffffffffffffffffffffffff1673ffffffffffffffffffffffffffffffffffffffff16815260200190815260200160002060000160006101000a81548160ff021916908315150217905550611006838261121d565b7f60bbf3f279de4eb569cec9565dbd645a7d269bef7d4b20083d8da32ddd6e94608382604051808373ffffffffffffffffffffffffffffffffffffffff1673ffffffffffffffffffffffffffffffffffffffff1681526020018281526020019250505060405180910390a17f54db7a5cb4735e1aac1f53db512d3390390bb6637bd30ad4bf9fc98667d9b9b983604051808273ffffffffffffffffffffffffffffffffffffffff1673ffffffffffffffffffffffffffffffffffffffff16815260200191505060405180910390a1505050565b80600160008573ffffffffffffffffffffffffffffffffffffffff1673ffffffffffffffffffffffffffffffffffffffff1681526020019081526020016000206002016000828254039250508190555080600160008473ffffffffffffffffffffffffffffffffffffffff1673ffffffffffffffffffffffffffffffffffffffff168152602001908152602001600020600201600082825401925050819055507fa170301a3eaa747fe3afbb4de1c3601cf3dee8ef5a572fcb6aaca116cf42c8ee838383604051808473ffffffffffffffffffffffffffffffffffffffff1673ffffffffffffffffffffffffffffffffffffffff1681526020018373ffffffffffffffffffffffffffffffffffffffff1673ffffffffffffffffffffffffffffffffffffffff168152602001828152602001935050505060405180910390a1505050565b60008160025403101515156112e6576040517f08c379a00000000000000000000000000000000000000000000000000000000081526004018080602001828103825260448152602001807f496e73756666696369656e7420746f6b656e732e204e65656420746f2067656e81526020017f6572617465206d6f726520666f72207265676973746572696e67206e6577207581526020017f736572730000000000000000000000000000000000000000000000000000000081525060600191505060405180910390fd5b80600160008473ffffffffffffffffffffffffffffffffffffffff1673ffffffffffffffffffffffffffffffffffffffff168152602001908152602001600020600201819055505050565b50805460018160011615610100020316600290046000825580601f106113575750611376565b601f01602090049060005260206000209081019061137591906113f9565b5b50565b828054600181600116156101000203166002900490600052602060002090601f016020900481019282601f106113ba57805160ff19168380011785556113e8565b828001600101855582156113e8579182015b828111156113e75782518255916020019190600101906113cc565b5b5090506113f591906113f9565b5090565b61141b91905b808211156114175760008160009055506001016113ff565b5090565b9056fea165627a7a7230582055f0fd32d1ae96f2beba3e156703cac1b5a47ecdde9b5aba887144ff529b10cb0029",
  "source": "pragma solidity >=0.5.0;\r\n\r\ncontract Market {\r\n\r\n    struct User {\r\n        bool isRegistered;\r\n        string userType;\r\n        uint balance;\r\n    }\r\n\r\n    address private chairperson;\r\n    mapping(address => User) private users;\r\n\r\n    uint private numTokens;\r\n    uint private nonce = 0;\r\n\r\n     \r\n    // modifiers\r\n    modifier onlyChairperson() {\r\n        require(msg.sender == chairperson, \"Only chairperson can call this\");\r\n        _;\r\n    }\r\n\r\n    modifier onlySeller() {\r\n        bytes memory seller = bytes(\"seller\");\r\n        bytes memory userType = bytes(users[msg.sender].userType);\r\n        require(keccak256(userType) == keccak256(seller), \"Only seller can call this\");\r\n        _;\r\n    }\r\n\r\n    modifier onlyBuyer() {\r\n        bytes memory buyer = bytes(\"buyer\");\r\n        bytes memory userType = bytes(users[msg.sender].userType);\r\n        require(keccak256(userType) == keccak256(buyer), \"Only buyer can call this\");\r\n        _;\r\n    }\r\n\r\n    modifier onlyChairpersonOrSelf(address userAddress) {\r\n        require(msg.sender == chairperson || msg.sender == userAddress, \"Only chairperson or the target user can call this\");\r\n        _;\r\n    }\r\n\r\n    \r\n    // events\r\n    event UserRegistered(address newUser);\r\n    event DepositSuccess(address newUser, uint amount);\r\n    event UserUnregistered(address userAddress);\r\n    event TokensAdded(uint numTokens);\r\n\r\n    event TransferSuccess(address from, address to, uint priceInTokens);\r\n    event BuySuccess(address from, address to, uint priceInTokens);\r\n    \r\n    \r\n    constructor() public {\r\n        chairperson = msg.sender;\r\n        users[chairperson].userType = \"chairperson\";\r\n        users[chairperson].isRegistered = true;\r\n    }\r\n    \r\n    /* Chairperson functions go here */\r\n\r\n    function totalSupply() public view onlyChairperson returns(uint) {\r\n        return numTokens;\r\n    }\r\n\r\n    function balanceOf(address userAddress) public view onlyChairpersonOrSelf(userAddress) returns(uint) {\r\n        return users[userAddress].balance;\r\n    }\r\n\r\n    /* add more tokens into the system - can only be called by the owner*/\r\n    function addTokens(uint amount) public onlyChairperson {\r\n        numTokens += amount;\r\n        emit TokensAdded(amount);\r\n    }\r\n\r\n    function addDeposit(address newUser, uint amount) internal {\r\n        require(numTokens - amount >= 0, \"Insufficient tokens. Need to generate more for registering new users\");\r\n        users[newUser].balance = amount; \r\n    }\r\n\r\n    function register(address newUser, string memory userType, uint amount) public onlyChairperson {\r\n        require(users[newUser].isRegistered == false, \"already registered user\");\r\n        \r\n        users[newUser].userType = userType;\r\n        users[newUser].isRegistered = true;\r\n        \r\n        \r\n        addDeposit(newUser, amount);\r\n        \r\n        emit DepositSuccess(newUser, amount);\r\n        emit UserRegistered(newUser);\r\n    }\r\n    \r\n    function unregister(address userAddress) public onlyChairperson{\r\n        require(users[userAddress].isRegistered == true, \"Error: User to unregister not found\");\r\n\r\n        delete users[userAddress];\r\n        // revokeTokens(userAddress);\r\n        emit UserUnregistered(userAddress);\r\n    }\r\n\r\n    /* Chairperson functions end here */\r\n\r\n    /* Buy function */\r\n\r\n    function settlePayment(address buyer, address seller, uint priceInTokens) internal {\r\n        users[buyer].balance -= priceInTokens;\r\n        users[seller].balance += priceInTokens;\r\n        emit TransferSuccess(buyer, seller, priceInTokens);\r\n    }\r\n\r\n    function buy(string memory productId, uint priceInTokens, address seller) public onlyBuyer returns(bytes32) {\r\n\r\n        require(msg.sender.balance >= priceInTokens, \"Transfer failed due to insufficient balance\");\r\n        require(msg.sender != seller, \"Invalid: Can't transfer token to the same account\");\r\n        \r\n        settlePayment(msg.sender, seller, priceInTokens);\r\n\r\n        bytes memory ret = abi.encodePacked(nonce, productId, msg.sender, seller, priceInTokens);\r\n        \r\n        nonce += 1;\r\n\r\n        return keccak256(ret);\r\n    }\r\n\r\n}",
  "sourcePath": "C:/Users/socket_var/Desktop/BlockchainProj1/rest_api/contracts/truffle/contracts/Market.sol",
  "compiler": {
    "name": "solc",
    "version": "0.5.0+commit.1d4f565a.Emscripten.clang"
  },
  "schemaVersion": "3.0.1",
  "updatedAt": "2019-02-28T03:58:32.653Z",
  "devdoc": {
    "methods": {}
  },
  "userdoc": {
    "methods": {}
  }
}