{
  "contractName": "Market",
  "abi": [
    {
      "inputs": [],
      "payable": false,
      "stateMutability": "nonpayable",
      "type": "constructor",
      "signature": "constructor"
    },
    {
      "anonymous": false,
      "inputs": [
        {
          "indexed": false,
          "name": "newUser",
          "type": "address"
        }
      ],
      "name": "UserRegistered",
      "type": "event",
      "signature": "0x54db7a5cb4735e1aac1f53db512d3390390bb6637bd30ad4bf9fc98667d9b9b9"
    },
    {
      "anonymous": false,
      "inputs": [
        {
          "indexed": false,
          "name": "newUser",
          "type": "address"
        },
        {
          "indexed": false,
          "name": "amount",
          "type": "uint256"
        }
      ],
      "name": "DepositSuccess",
      "type": "event",
      "signature": "0x60bbf3f279de4eb569cec9565dbd645a7d269bef7d4b20083d8da32ddd6e9460"
    },
    {
      "anonymous": false,
      "inputs": [
        {
          "indexed": false,
          "name": "userAddress",
          "type": "address"
        }
      ],
      "name": "UserUnregistered",
      "type": "event",
      "signature": "0x69c4cef1aa574ae7852ac8b784ab60926951c604b70049150e4091759ea98076"
    },
    {
      "anonymous": false,
      "inputs": [
        {
          "indexed": false,
          "name": "totalTokensInNetwork",
          "type": "uint256"
        }
      ],
      "name": "TokensAdded",
      "type": "event",
      "signature": "0x7abd2da41655cd6672547886624ebbe41968185456fb8b5b82cf3dd1d8ff8f31"
    },
    {
      "anonymous": false,
      "inputs": [
        {
          "indexed": false,
          "name": "from",
          "type": "address"
        },
        {
          "indexed": false,
          "name": "to",
          "type": "address"
        },
        {
          "indexed": false,
          "name": "priceInTokens",
          "type": "uint256"
        }
      ],
      "name": "TransferSuccess",
      "type": "event",
      "signature": "0xa170301a3eaa747fe3afbb4de1c3601cf3dee8ef5a572fcb6aaca116cf42c8ee"
    },
    {
      "anonymous": false,
      "inputs": [
        {
          "indexed": false,
          "name": "from",
          "type": "address"
        },
        {
          "indexed": false,
          "name": "to",
          "type": "address"
        },
        {
          "indexed": false,
          "name": "priceInTokens",
          "type": "uint256"
        }
      ],
      "name": "BuySuccess",
      "type": "event",
      "signature": "0x912e7d37b91af6b800f09f5597d19de624a4e0ba30abbec5ce505167ca7ff631"
    },
    {
      "constant": true,
      "inputs": [],
      "name": "totalSupply",
      "outputs": [
        {
          "name": "",
          "type": "uint256"
        }
      ],
      "payable": false,
      "stateMutability": "view",
      "type": "function",
      "signature": "0x18160ddd"
    },
    {
      "constant": true,
      "inputs": [],
      "name": "getTokenBalance",
      "outputs": [
        {
          "name": "",
          "type": "uint256"
        }
      ],
      "payable": false,
      "stateMutability": "view",
      "type": "function",
      "signature": "0x82b2e257"
    },
    {
      "constant": true,
      "inputs": [
        {
          "name": "userAddress",
          "type": "address"
        }
      ],
      "name": "balanceOf",
      "outputs": [
        {
          "name": "",
          "type": "uint256"
        }
      ],
      "payable": false,
      "stateMutability": "view",
      "type": "function",
      "signature": "0x70a08231"
    },
    {
      "constant": false,
      "inputs": [
        {
          "name": "amount",
          "type": "uint256"
        }
      ],
      "name": "addTokens",
      "outputs": [],
      "payable": false,
      "stateMutability": "nonpayable",
      "type": "function",
      "signature": "0xc6ed8990"
    },
    {
      "constant": false,
      "inputs": [
        {
          "name": "userAddress",
          "type": "address"
        },
        {
          "name": "amount",
          "type": "uint256"
        }
      ],
      "name": "addDeposit",
      "outputs": [],
      "payable": false,
      "stateMutability": "nonpayable",
      "type": "function",
      "signature": "0x33026bb6"
    },
    {
      "constant": false,
      "inputs": [
        {
          "name": "newUser",
          "type": "address"
        },
        {
          "name": "userType",
          "type": "string"
        },
        {
          "name": "amount",
          "type": "uint256"
        }
      ],
      "name": "register",
      "outputs": [],
      "payable": false,
      "stateMutability": "nonpayable",
      "type": "function",
      "signature": "0xfc0d1b84"
    },
    {
      "constant": false,
      "inputs": [
        {
          "name": "userAddress",
          "type": "address"
        }
      ],
      "name": "unregister",
      "outputs": [],
      "payable": false,
      "stateMutability": "nonpayable",
      "type": "function",
      "signature": "0x2ec2c246"
    },
    {
      "constant": false,
      "inputs": [
        {
          "name": "productId",
          "type": "string"
        },
        {
          "name": "priceInTokens",
          "type": "uint256"
        },
        {
          "name": "seller",
          "type": "address"
        }
      ],
      "name": "buy",
      "outputs": [
        {
          "name": "",
          "type": "bytes32"
        }
      ],
      "payable": false,
      "stateMutability": "nonpayable",
      "type": "function",
      "signature": "0x365366fb"
    }
  ],
  "bytecode": "0x608060405260006005553480156200001657600080fd5b50336000806101000a81548173ffffffffffffffffffffffffffffffffffffffff021916908373ffffffffffffffffffffffffffffffffffffffff1602179055506040805190810160405280600b81526020017f6368616972706572736f6e000000000000000000000000000000000000000000815250600160008060009054906101000a900473ffffffffffffffffffffffffffffffffffffffff1673ffffffffffffffffffffffffffffffffffffffff1673ffffffffffffffffffffffffffffffffffffffff16815260200190815260200160002060010190805190602001906200010592919062000187565b5060018060008060009054906101000a900473ffffffffffffffffffffffffffffffffffffffff1673ffffffffffffffffffffffffffffffffffffffff1673ffffffffffffffffffffffffffffffffffffffff16815260200190815260200160002060000160006101000a81548160ff02191690831515021790555062000236565b828054600181600116156101000203166002900490600052602060002090601f016020900481019282601f10620001ca57805160ff1916838001178555620001fb565b82800160010185558215620001fb579182015b82811115620001fa578251825591602001919060010190620001dd565b5b5090506200020a91906200020e565b5090565b6200023391905b808211156200022f57600081600090555060010162000215565b5090565b90565b6118d880620002466000396000f3fe60806040526004361061008e576000357c0100000000000000000000000000000000000000000000000000000000900463ffffffff16806318160ddd146100935780632ec2c246146100be57806333026bb61461010f578063365366fb1461016a57806370a082311461027057806382b2e257146102d5578063c6ed899014610300578063fc0d1b841461033b575b600080fd5b34801561009f57600080fd5b506100a861042d565b6040518082815260200191505060405180910390f35b3480156100ca57600080fd5b5061010d600480360360208110156100e157600080fd5b81019080803573ffffffffffffffffffffffffffffffffffffffff1690602001909291905050506104fb565b005b34801561011b57600080fd5b506101686004803603604081101561013257600080fd5b81019080803573ffffffffffffffffffffffffffffffffffffffff1690602001909291908035906020019092919050505061078d565b005b34801561017657600080fd5b5061025a6004803603606081101561018d57600080fd5b81019080803590602001906401000000008111156101aa57600080fd5b8201836020820111156101bc57600080fd5b803590602001918460018302840111640100000000831117156101de57600080fd5b91908080601f016020809104026020016040519081016040528093929190818152602001838380828437600081840152601f19601f82011690508083019250505050505050919291929080359060200190929190803573ffffffffffffffffffffffffffffffffffffffff169060200190929190505050610a47565b6040518082815260200191505060405180910390f35b34801561027c57600080fd5b506102bf6004803603602081101561029357600080fd5b81019080803573ffffffffffffffffffffffffffffffffffffffff169060200190929190505050610ecb565b6040518082815260200191505060405180910390f35b3480156102e157600080fd5b506102ea611039565b6040518082815260200191505060405180910390f35b34801561030c57600080fd5b506103396004803603602081101561032357600080fd5b8101908080359060200190929190505050611107565b005b34801561034757600080fd5b5061042b6004803603606081101561035e57600080fd5b81019080803573ffffffffffffffffffffffffffffffffffffffff1690602001909291908035906020019064010000000081111561039b57600080fd5b8201836020820111156103ad57600080fd5b803590602001918460018302840111640100000000831117156103cf57600080fd5b91908080601f016020809104026020016040519081016040528093929190818152602001838380828437600081840152601f19601f82011690508083019250505050505050919291929080359060200190929190505050611225565b005b60008060009054906101000a900473ffffffffffffffffffffffffffffffffffffffff1673ffffffffffffffffffffffffffffffffffffffff163373ffffffffffffffffffffffffffffffffffffffff161415156104f3576040517f08c379a000000000000000000000000000000000000000000000000000000000815260040180806020018281038252601e8152602001807f4f6e6c79206368616972706572736f6e2063616e2063616c6c2074686973000081525060200191505060405180910390fd5b600354905090565b6000809054906101000a900473ffffffffffffffffffffffffffffffffffffffff1673ffffffffffffffffffffffffffffffffffffffff163373ffffffffffffffffffffffffffffffffffffffff161415156105bf576040517f08c379a000000000000000000000000000000000000000000000000000000000815260040180806020018281038252601e8152602001807f4f6e6c79206368616972706572736f6e2063616e2063616c6c2074686973000081525060200191505060405180910390fd5b60011515600160008373ffffffffffffffffffffffffffffffffffffffff1673ffffffffffffffffffffffffffffffffffffffff16815260200190815260200160002060000160009054906101000a900460ff1615151415156106b0576040517f08c379a00000000000000000000000000000000000000000000000000000000081526004018080602001828103825260238152602001807f4572726f723a205573657220746f20756e7265676973746572206e6f7420666f81526020017f756e64000000000000000000000000000000000000000000000000000000000081525060400191505060405180910390fd5b6106b981611542565b600160008273ffffffffffffffffffffffffffffffffffffffff1673ffffffffffffffffffffffffffffffffffffffff168152602001908152602001600020600080820160006101000a81549060ff021916905560018201600061071d91906117bf565b600282016000905550507f69c4cef1aa574ae7852ac8b784ab60926951c604b70049150e4091759ea9807681604051808273ffffffffffffffffffffffffffffffffffffffff1673ffffffffffffffffffffffffffffffffffffffff16815260200191505060405180910390a150565b816000809054906101000a900473ffffffffffffffffffffffffffffffffffffffff1673ffffffffffffffffffffffffffffffffffffffff163373ffffffffffffffffffffffffffffffffffffffff16148061081457508073ffffffffffffffffffffffffffffffffffffffff163373ffffffffffffffffffffffffffffffffffffffff16145b15156108ae576040517f08c379a00000000000000000000000000000000000000000000000000000000081526004018080602001828103825260318152602001807f4f6e6c79206368616972706572736f6e206f722074686520746172676574207581526020017f7365722063616e2063616c6c207468697300000000000000000000000000000081525060400191505060405180910390fd5b6000826003540310151515610977576040517f08c379a00000000000000000000000000000000000000000000000000000000081526004018080602001828103825260448152602001807f496e73756666696369656e7420746f6b656e732e204e65656420746f2067656e81526020017f6572617465206d6f726520666f72207265676973746572696e67206e6577207581526020017f736572730000000000000000000000000000000000000000000000000000000081525060600191505060405180910390fd5b6000809054906101000a900473ffffffffffffffffffffffffffffffffffffffff1673ffffffffffffffffffffffffffffffffffffffff163373ffffffffffffffffffffffffffffffffffffffff1614156109e157816004600082825403925050819055506109f2565b816003600082825401925050819055505b81600160008573ffffffffffffffffffffffffffffffffffffffff1673ffffffffffffffffffffffffffffffffffffffff16815260200190815260200160002060020160008282540192505081905550505050565b600060606040805190810160405280600581526020017f627579657200000000000000000000000000000000000000000000000000000081525090506060600160003373ffffffffffffffffffffffffffffffffffffffff1673ffffffffffffffffffffffffffffffffffffffff1681526020019081526020016000206001018054600181600116156101000203166002900480601f016020809104026020016040519081016040528092919081815260200182805460018160011615610100020316600290048015610b5b5780601f10610b3057610100808354040283529160200191610b5b565b820191906000526020600020905b815481529060010190602001808311610b3e57829003601f168201915b5050505050905081805190602001208180519060200120141515610be7576040517f08c379a00000000000000000000000000000000000000000000000000000000081526004018080602001828103825260188152602001807f4f6e6c792062757965722063616e2063616c6c2074686973000000000000000081525060200191505060405180910390fd5b843373ffffffffffffffffffffffffffffffffffffffff163110151515610c9c576040517f08c379a000000000000000000000000000000000000000000000000000000000815260040180806020018281038252602b8152602001807f5472616e73666572206661696c65642064756520746f20696e7375666669636981526020017f656e742062616c616e636500000000000000000000000000000000000000000081525060400191505060405180910390fd5b8373ffffffffffffffffffffffffffffffffffffffff163373ffffffffffffffffffffffffffffffffffffffff1614151515610d66576040517f08c379a00000000000000000000000000000000000000000000000000000000081526004018080602001828103825260318152602001807f496e76616c69643a2043616e2774207472616e7366657220746f6b656e20746f81526020017f207468652073616d65206163636f756e7400000000000000000000000000000081525060400191505060405180910390fd5b610d7133858761167b565b6000600554873387896040516020018086815260200185805190602001908083835b602083101515610db85780518252602082019150602081019050602083039250610d93565b6001836020036101000a0380198251168184511680821785525050505050509050018473ffffffffffffffffffffffffffffffffffffffff1673ffffffffffffffffffffffffffffffffffffffff166c010000000000000000000000000281526014018373ffffffffffffffffffffffffffffffffffffffff1673ffffffffffffffffffffffffffffffffffffffff166c0100000000000000000000000002815260140182815260200195505050505050604051602081830303815290604052805190602001209050600160056000828254019250508190555060028190806001815401808255809150509060018203906000526020600020016000909192909190915055508093505050509392505050565b6000816000809054906101000a900473ffffffffffffffffffffffffffffffffffffffff1673ffffffffffffffffffffffffffffffffffffffff163373ffffffffffffffffffffffffffffffffffffffff161480610f5457508073ffffffffffffffffffffffffffffffffffffffff163373ffffffffffffffffffffffffffffffffffffffff16145b1515610fee576040517f08c379a00000000000000000000000000000000000000000000000000000000081526004018080602001828103825260318152602001807f4f6e6c79206368616972706572736f6e206f722074686520746172676574207581526020017f7365722063616e2063616c6c207468697300000000000000000000000000000081525060400191505060405180910390fd5b600160008473ffffffffffffffffffffffffffffffffffffffff1673ffffffffffffffffffffffffffffffffffffffff16815260200190815260200160002060020154915050919050565b60008060009054906101000a900473ffffffffffffffffffffffffffffffffffffffff1673ffffffffffffffffffffffffffffffffffffffff163373ffffffffffffffffffffffffffffffffffffffff161415156110ff576040517f08c379a000000000000000000000000000000000000000000000000000000000815260040180806020018281038252601e8152602001807f4f6e6c79206368616972706572736f6e2063616e2063616c6c2074686973000081525060200191505060405180910390fd5b600454905090565b6000809054906101000a900473ffffffffffffffffffffffffffffffffffffffff1673ffffffffffffffffffffffffffffffffffffffff163373ffffffffffffffffffffffffffffffffffffffff161415156111cb576040517f08c379a000000000000000000000000000000000000000000000000000000000815260040180806020018281038252601e8152602001807f4f6e6c79206368616972706572736f6e2063616e2063616c6c2074686973000081525060200191505060405180910390fd5b80600360008282540192505081905550806004600082825401925050819055507f7abd2da41655cd6672547886624ebbe41968185456fb8b5b82cf3dd1d8ff8f31816040518082815260200191505060405180910390a150565b6000809054906101000a900473ffffffffffffffffffffffffffffffffffffffff1673ffffffffffffffffffffffffffffffffffffffff163373ffffffffffffffffffffffffffffffffffffffff161415156112e9576040517f08c379a000000000000000000000000000000000000000000000000000000000815260040180806020018281038252601e8152602001807f4f6e6c79206368616972706572736f6e2063616e2063616c6c2074686973000081525060200191505060405180910390fd5b60001515600160008573ffffffffffffffffffffffffffffffffffffffff1673ffffffffffffffffffffffffffffffffffffffff16815260200190815260200160002060000160009054906101000a900460ff1615151415156113b4576040517f08c379a00000000000000000000000000000000000000000000000000000000081526004018080602001828103825260178152602001807f616c72656164792072656769737465726564207573657200000000000000000081525060200191505060405180910390fd5b81600160008573ffffffffffffffffffffffffffffffffffffffff1673ffffffffffffffffffffffffffffffffffffffff168152602001908152602001600020600101908051906020019061140a929190611807565b5060018060008573ffffffffffffffffffffffffffffffffffffffff1673ffffffffffffffffffffffffffffffffffffffff16815260200190815260200160002060000160006101000a81548160ff02191690831515021790555061146f838261078d565b7f60bbf3f279de4eb569cec9565dbd645a7d269bef7d4b20083d8da32ddd6e94608382604051808373ffffffffffffffffffffffffffffffffffffffff1673ffffffffffffffffffffffffffffffffffffffff1681526020018281526020019250505060405180910390a17f54db7a5cb4735e1aac1f53db512d3390390bb6637bd30ad4bf9fc98667d9b9b983604051808273ffffffffffffffffffffffffffffffffffffffff1673ffffffffffffffffffffffffffffffffffffffff16815260200191505060405180910390a1505050565b6000600160008373ffffffffffffffffffffffffffffffffffffffff1673ffffffffffffffffffffffffffffffffffffffff16815260200190815260200160002060020154111561167857600160008273ffffffffffffffffffffffffffffffffffffffff1673ffffffffffffffffffffffffffffffffffffffff16815260200190815260200160002060020154600460008282540392505081905550600160008273ffffffffffffffffffffffffffffffffffffffff1673ffffffffffffffffffffffffffffffffffffffff16815260200190815260200160002060020154600360008282540392505081905550600160008273ffffffffffffffffffffffffffffffffffffffff1673ffffffffffffffffffffffffffffffffffffffff168152602001908152602001600020600201600090555b50565b80600160008573ffffffffffffffffffffffffffffffffffffffff1673ffffffffffffffffffffffffffffffffffffffff1681526020019081526020016000206002016000828254039250508190555080600160008473ffffffffffffffffffffffffffffffffffffffff1673ffffffffffffffffffffffffffffffffffffffff168152602001908152602001600020600201600082825401925050819055507fa170301a3eaa747fe3afbb4de1c3601cf3dee8ef5a572fcb6aaca116cf42c8ee838383604051808473ffffffffffffffffffffffffffffffffffffffff1673ffffffffffffffffffffffffffffffffffffffff1681526020018373ffffffffffffffffffffffffffffffffffffffff1673ffffffffffffffffffffffffffffffffffffffff168152602001828152602001935050505060405180910390a1505050565b50805460018160011615610100020316600290046000825580601f106117e55750611804565b601f0160209004906000526020600020908101906118039190611887565b5b50565b828054600181600116156101000203166002900490600052602060002090601f016020900481019282601f1061184857805160ff1916838001178555611876565b82800160010185558215611876579182015b8281111561187557825182559160200191906001019061185a565b5b5090506118839190611887565b5090565b6118a991905b808211156118a557600081600090555060010161188d565b5090565b9056fea165627a7a72305820d6a582c35dc28b052856c658cbe57b259feced7bf94a08785657b5736d5b39e60029",
  "source": "pragma solidity >=0.5.0;\r\n\r\ncontract Market {\r\n\r\n    struct User {\r\n        bool isRegistered;\r\n        string userType;\r\n        uint balance;\r\n    }\r\n\r\n    address private chairperson;\r\n    mapping(address => User) private users;\r\n\r\n    bytes32[] private transactions;\r\n    uint private totalTokensInNetwork;\r\n    uint private tokensRemaining;\r\n    uint private nonce = 0;\r\n\r\n     \r\n    // modifiers\r\n    modifier onlyChairperson() {\r\n        require(msg.sender == chairperson, \"Only chairperson can call this\");\r\n        _;\r\n    }\r\n\r\n    modifier onlySeller() {\r\n        bytes memory seller = bytes(\"seller\");\r\n        bytes memory userType = bytes(users[msg.sender].userType);\r\n        require(keccak256(userType) == keccak256(seller), \"Only seller can call this\");\r\n        _;\r\n    }\r\n\r\n    modifier onlyBuyer() {\r\n        bytes memory buyer = bytes(\"buyer\");\r\n        bytes memory userType = bytes(users[msg.sender].userType);\r\n        require(keccak256(userType) == keccak256(buyer), \"Only buyer can call this\");\r\n        _;\r\n    }\r\n\r\n    modifier onlyChairpersonOrSelf(address userAddress) {\r\n        require(msg.sender == chairperson || msg.sender == userAddress, \"Only chairperson or the target user can call this\");\r\n        _;\r\n    }\r\n\r\n    \r\n    // events\r\n    event UserRegistered(address newUser);\r\n    event DepositSuccess(address newUser, uint amount);\r\n    event UserUnregistered(address userAddress);\r\n    event TokensAdded(uint totalTokensInNetwork);\r\n\r\n    event TransferSuccess(address from, address to, uint priceInTokens);\r\n    event BuySuccess(address from, address to, uint priceInTokens);\r\n    \r\n    \r\n    constructor() public {\r\n        chairperson = msg.sender;\r\n        users[chairperson].userType = \"chairperson\";\r\n        users[chairperson].isRegistered = true;\r\n    }\r\n    \r\n    /* Chairperson functions go here */\r\n    \r\n    /* Get and set tokens*/\r\n    function totalSupply() public view onlyChairperson returns(uint) {\r\n        return totalTokensInNetwork;\r\n    }\r\n\r\n    function getTokenBalance() public view onlyChairperson returns(uint) {\r\n        return tokensRemaining;\r\n    }\r\n\r\n    function balanceOf(address userAddress) public view onlyChairpersonOrSelf(userAddress) returns(uint) {\r\n        return users[userAddress].balance;\r\n    }\r\n\r\n    function addTokens(uint amount) public onlyChairperson {\r\n        totalTokensInNetwork += amount;\r\n        tokensRemaining += amount;\r\n        emit TokensAdded(amount);\r\n    }\r\n\r\n    /* Register and unregister users */\r\n    function addDeposit(address userAddress, uint amount) public onlyChairpersonOrSelf(userAddress) {\r\n        require(totalTokensInNetwork - amount >= 0, \"Insufficient tokens. Need to generate more for registering new users\");\r\n\r\n        // if chairperson is adding deposit transfer tokens\r\n        if (msg.sender == chairperson) {\r\n            tokensRemaining -= amount;\r\n        } else { // if user is adding tokens increase network token count and assign amount to user\r\n            totalTokensInNetwork += amount;\r\n        }\r\n        \r\n        users[userAddress].balance += amount; \r\n    }\r\n\r\n    function register(address newUser, string memory userType, uint amount) public onlyChairperson {\r\n        require(users[newUser].isRegistered == false, \"already registered user\");\r\n        \r\n        users[newUser].userType = userType;\r\n        users[newUser].isRegistered = true;\r\n        \r\n        \r\n        addDeposit(newUser, amount);\r\n        \r\n        emit DepositSuccess(newUser, amount);\r\n        emit UserRegistered(newUser);\r\n    }\r\n    \r\n    // when user unregisters this is called which removes all the user's tokens (assuming the user's balance is claimed using a payment gateway)\r\n    function removeAllTokens(address userAddress) internal {\r\n        if (users[userAddress].balance > 0) {\r\n            tokensRemaining -= users[userAddress].balance;\r\n            totalTokensInNetwork -= users[userAddress].balance;\r\n            delete users[userAddress].balance;\r\n        }\r\n    }\r\n    \r\n    function unregister(address userAddress) public onlyChairperson {\r\n        require(users[userAddress].isRegistered == true, \"Error: User to unregister not found\");\r\n        removeAllTokens(userAddress);\r\n        delete users[userAddress];\r\n        \r\n        emit UserUnregistered(userAddress);\r\n    }\r\n\r\n    /* Chairperson functions end here */\r\n\r\n    /* Buy function */\r\n\r\n    function settlePayment(address buyer, address seller, uint priceInTokens) internal {\r\n        users[buyer].balance -= priceInTokens;\r\n        users[seller].balance += priceInTokens;\r\n        emit TransferSuccess(buyer, seller, priceInTokens);\r\n    }\r\n\r\n    function buy(string memory productId, uint priceInTokens, address seller) public onlyBuyer returns(bytes32) {\r\n\r\n        require(msg.sender.balance >= priceInTokens, \"Transfer failed due to insufficient balance\");\r\n        require(msg.sender != seller, \"Invalid: Can't transfer token to the same account\");\r\n        \r\n        settlePayment(msg.sender, seller, priceInTokens);\r\n\r\n        bytes32 transactionId = keccak256(abi.encodePacked(nonce, productId, msg.sender, seller, priceInTokens));\r\n        \r\n        nonce += 1;\r\n\r\n        transactions.push(transactionId);\r\n\r\n        return transactionId;\r\n    }\r\n\r\n}",
  "sourcePath": "C:/Users/socket_var/Desktop/BlockchainProj1/truffle-build/contracts/Market.sol",
  "compiler": {
    "name": "solc",
    "version": "0.5.0+commit.1d4f565a.Emscripten.clang"
  },
  "schemaVersion": "3.0.1",
  "updatedAt": "2019-03-04T18:47:02.917Z",
  "devdoc": {
    "methods": {}
  },
  "userdoc": {
    "methods": {}
  }
}